:100000000C9434000C943E000C943E000C943E0082
:100010000C943E000C943E000C943E000C943E0068
:100020000C943E000C943E000C943E000C943E0058
:100030000C943E000C943E000C943E000C943E0048
:100040000C943E000C943E000C943E000C943E0038
:100050000C943E000C943E000C943E000C943E0028
:100060000C943E000C943E0011241FBECFEFD8E04C
:10007000DEBFCDBF0E9440000C944B010C940000E9
:100080000E9409010E946F008130E1F780E00E9428
:100090008A000E94BB000E941601F4CF20E030E0ED
:1000A00040E050E0A0EABFE0FD013197F1F72F5F9B
:1000B0003F4F4F4F5F4F6217730784079507A0F7B5
:1000C000089585B90895589A0895599A0895209ADF
:1000D0001AB88BB183608BB9589A599A08950E94C7
:1000E000670015B8489908C0499903C081E085B9EF
:1000F000089515B880E0089515B880E00895ECE7FC
:10010000F0E0808180648083EAE7F0E080818768A6
:100110008083089590917C00906490937C009091EE
:100120007A00976890937A0090917C00987F9093E2
:100130007C0090917C009770982390937C00809134
:100140007A00806480937A0080917A0086FDFCCFEB
:1001500080917A00806180937A00209178003091BC
:100160007900C901089583E8809380008BE0809333
:100170008100219A08959C0183E8809380008BE0A0
:1001800080938100219A293C310570F48CEC90E039
:10019000909389008093880068EC70E080E090E0A4
:1001A0000E944E0081E60895C901895C90408C52FE
:1001B000914070F489E991E09093890080938800E0
:1001C00068EC70E080E090E00E944E0082E60895C6
:1001D000255F3140283C310570F48CEC92E090931F
:1001E00089008093880068EC70E080E090E00E94D5
:1001F0004E0083E608958CEC93E090938900809301
:10020000880068EC70E080E090E00E944E0084E698
:1002100008951092C50087E68093C400789486E024
:100220008093C20088ED8093C1000895813649F41F
:100230008091C00085FFFCCF82E38093C60080E3FD
:1002400015C0823649F48091C00085FFFCCF82E35F
:100250008093C60085E30AC0833671F48091C000A4
:1002600085FFFCCF82E38093C60089E38093C600BC
:1002700083E48093C6000895843661F48091C000C1
:1002800085FFFCCF83E38093C6008093C60083E4A0
:0A0290008093C6000895F894FFCF94
:00000001FF
